:020000040800F2
:1000000000000220F53C0008490D00084B0D0008D7
:100010004D0D00084F0D0008510D000800000000B4
:10002000000000000000000000000000E1300008B7
:10003000530D00080000000081310008E531000880
:10004000453D0008453D0008453D0008453D000888
:10005000453D0008453D0008453D0008453D000878
:10006000453D0008453D0008453D0008453D000868
:10007000453D0008453D0008453D0008453D000858
:10008000453D0008453D0008453D0008453D000848
:10009000453D0008453D0008453D0008453D000838
:1000A000453D0008453D0008453D0008453D000828
:1000B000453D0008453D0008453D0008453D000818
:1000C000453D0008453D0008453D0008453D000808
:1000D000453D0008453D0008453D0008453D0008F8
:1000E000453D0008453D0008453D0008453D0008E8
:1000F000453D0008453D0008453D0008453D0008D8
:10010000453D0008453D0008453D0008453D0008C7
:10011000453D0008453D0008550D0008453D0008D7
:10012000453D0008453D0008453D0008453D0008A7
:10013000453D0008453D0008453D0008453D000897
:10014000453D0008453D0008453D0008453D000887
:10015000453D0008453D0008453D0008453D000877
:10016000453D0008453D0008453D0008453D000867
:10017000453D0008453D0008453D000800000000E1
:08018000453D0008453D000863
:1001900010B5054C237833B9044B13B10448AFF3C1
:1001A00000800123237010BD3C04002000000000EB
:1001B000143F000808B5034B1BB103490348AFF3D4
:1001C000008008BD0000000040040020143F00082B
:1001D00053B94AB9002908BF00281CBF4FF0FF31AE
:1001E0004FF0FF3000F074B9ADF1080C6DE904CEAA
:1001F00000F006F8DDF804E0DDE9022304B0704702
:100200002DE9F047089D04468E46002B4DD18A42C9
:10021000944669D9B2FA82F252B101FA02F3C2F1FC
:10022000200120FA01F10CFA02FC41EA030E94408D
:100230004FEA1C48210CBEFBF8F61FFA8CF708FBAE
:1002400016E341EA034306FB07F199420AD91CEB86
:10025000030306F1FF3080F01F81994240F21C81B8
:10026000023E63445B1AA4B2B3FBF8F008FB103300
:1002700044EA034400FB07F7A7420AD91CEB040435
:1002800000F1FF3380F00A81A74240F20781644405
:10029000023840EA0640E41B00261DB1D44000238A
:1002A000C5E900433146BDE8F0878B4209D9002DEE
:1002B00000F0EF800026C5E9000130463146BDE878
:1002C000F087B3FA83F6002E4AD18B4202D38242E2
:1002D00000F2F980841A61EB030301209E46002D91
:1002E000E0D0C5E9004EDDE702B9FFDEB2FA82F2E6
:1002F000002A40F09280A1EB0C014FEA1C471FFA44
:100300008CFE0126200CB1FBF7F307FB131140EA2A
:1003100001410EFB03F0884208D91CEB010103F1F7
:10032000FF3802D2884200F2CB804346091AA4B2B9
:10033000B1FBF7F007FB101144EA01440EFB00FE8D
:10034000A64508D91CEB040400F1FF3102D2A645F2
:1003500000F2BB800846A4EB0E0440EA03409CE791
:10036000C6F12007B34022FA07FC4CEA030C20FA3E
:1003700007F401FA06F31C43F9404FEA1C4900FA5E
:1003800006F3B1FBF9F8200C1FFA8CFE09FB1811DB
:1003900040EA014108FB0EF0884202FA06F20BD94E
:1003A0001CEB010108F1FF3A80F08880884240F29E
:1003B0008580A8F102086144091AA4B2B1FBF9F0E2
:1003C00009FB101144EA014100FB0EFE8E4508D9DD
:1003D0001CEB010100F1FF346CD28E456AD9023862
:1003E000614440EA0840A0FB0294A1EB0E01A14247
:1003F000C846A64656D353D05DB1B3EB080261EBB5
:100400000E0101FA07F722FA06F3F1401F43C5E98E
:10041000007100263146BDE8F087C2F12003D840C4
:100420000CFA02FC21FA03F3914001434FEA1C4706
:100430001FFA8CFEB3FBF7F007FB10360B0C43EAF8
:10044000064300FB0EF69E4204FA02F408D91CEBA8
:10045000030300F1FF382FD29E422DD902386344A6
:100460009B1B89B2B3FBF7F607FB163341EA034146
:1004700006FB0EF38B4208D91CEB010106F1FF3895
:1004800016D28B4214D9023E6144C91A46EA00468C
:1004900038E72E46284605E70646E3E61846F8E61E
:1004A0004B45A9D2B9EB020864EB0C0E0138A3E767
:1004B0004646EAE7204694E74046D1E7D0467BE748
:1004C000023B614432E7304609E76444023842E7C0
:1004D000704700BF00B585B00023009301930293DD
:1004E00003931548154A02604FF4803242608360DE
:1004F0000361037680F82030C362114A8262C360D0
:100500000122C26180F83030426101F015F968B90A
:1005100002230093012301930023029369460648B6
:1005200001F036F928B905B05DF804FB00F060FA77
:10053000EEE700F05DFAF6E75804002000200140E5
:100540000100000F00B589B00023039304930593C5
:1005500006930793026803F1804303F590339A42B0
:1005600002D009B05DF804FB0021019103F58C3342
:100570005A6C42F480725A645A6C02F4807201928E
:10058000019A02911A6B42F001021A631B6B03F08D
:1005900001030293029B042303930323049303A9FF
:1005A000014801F029FADCE70000024008B50548DF
:1005B000054B036001F010FA00B908BD00F018FA0D
:1005C000FBE700BFA0040020003002400268094B96
:1005D0009A4200D0704782B000230193064B1A6BF9
:1005E00042F480521A631B6B03F480530193019B06
:1005F00002B07047003002400038024008B50120C8
:1006000002F0C8FCFBE70000034B0360034B0B60E8
:1006100080231360704700BFAC060020AC040020AC
:1006200010B588B00DF1040C074C0FCCACE80F00EE
:1006300094E807008CE80700002101A802F075FC8F
:10064000024B186008B010BD2C3F0008A804002021
:10065000F0B587B0002301930293039304930593AD
:100660001B4B1B680BB107B0F0BD194B01221A6080
:1006700000260096174B9A6B42F001029A639B6B1F
:1006800003F001030093009B41F201030193022751
:100690000297032504950C24059401A90E4801F046
:1006A000ABF94FF680730193029703960495059476
:1006B00001A90A4801F0A0F94CF2337301930297A3
:1006C00003960495059401A9054801F095F9CAE738
:1006D00000070020003802400018024000100240CD
:1006E000000C024010B588B00022019202920392E1
:1006F000049205920692079215484FF0204303603A
:1007000003F58273436006238360C2600261102197
:1007100041618261C261026242624FF4805383622E
:10072000C26202634263826342640F2301930293B5
:10073000FF240394049305911123069301A901F06A
:10074000C9FE08B908B010BD00F052F9FAE700BFC1
:100750000407002008B5FFF77BFF08BD2DE9F04F27
:100760008FB0002409940A940B940C940D94019476
:100770005D4B1A6B42F010021A631A6B02F0100202
:100780000192019A02941A6B42F004021A631A6BE6
:1007900002F004020292029A03941A6B42F02002C1
:1007A0001A631A6B02F020020392039A04941A6BE4
:1007B00042F080021A631A6B02F080020492049ADB
:1007C00005941A6B42F001021A631A6B02F00102DF
:1007D0000592059A06941A6B42F002021A631A6B8C
:1007E00002F002020692069A07941A6B42F0400247
:1007F0001A631A6B02F040020792079A08941A6B68
:1008000042F008021A631B6B03F008030893089B6D
:10081000DFF8E0B022463C21584601F0D5F9DFF878
:10082000D8A022464FF63C01504601F0CDF9DFF842
:10083000CC9022460821484601F0C6F9DFF8C08076
:1008400022463021404601F0BFF9284F22460521BB
:10085000384601F0B9F9264E22460221304601F011
:10086000B3F901224FF48071304601F0ADF93C2319
:10087000099301250A950B940C9409A9584601F097
:10088000BBF84FF63C0309930A950B940C9409A905
:10089000504601F0B1F8082309930A950B940C9483
:1008A00009A9484601F0A8F8302309930A950B944A
:1008B0000C9409A9404601F09FF8052309930A9575
:1008C0000B940C9409A9384601F096F84FF4817303
:1008D00009930A950B940C9409A9304601F08CF801
:1008E0000FB0BDE8F08F00BF0038024000040240A6
:1008F00000180240001002400014024000000240B4
:100900000008024008B50B480B4B03600B4B4360DB
:1009100000238360C3604FF48042026143618361BE
:10092000C361036201F056F900B908BD00F060F838
:10093000FBE700BF5407002000580040A0860100DC
:1009400030B589B00023039304930593069307936E
:100950000268144B9A4201D009B030BD00250195C0
:10096000114C236B43F020032363236B03F020031C
:100970000193019B03230393122204920122059207
:1009800006930423079303A9084801F035F802955C
:10099000236C43F480032364236C03F480030293E9
:1009A000029BD9E700580040003802400014024082
:1009B00008B50748074B03600023436040F6FF7308
:1009C000836001F0E5F900B908BD00F011F8FBE71C
:1009D000A80700200030004008B50268034B9A4287
:1009E00000D008BD00F0FCFDFBE700BF0010004098
:1009F00072B6FEE700B595B03022002108A803F0DA
:100A0000C7F9002303930493059306930793019377
:100A1000214A116C41F080511164126C02F0805235
:100A20000192019A02931D4B1A6842F480421A60A7
:100A30001B6803F480430293029B092308934FF43D
:100A40008033099301230D9302230E934FF4800208
:100A50000F9210221092C02211921293042313932A
:100A600008A801F0BBF998B90F230393022304935C
:100A7000002305934FF4A05306934FF4805307933C
:100A8000042103A801F0F2FB20B915B05DF804FBC6
:100A9000FFF7AEFFFFF7ACFF0038024000700040E8
:100AA00008B500F083FDFFF7A5FFFFF757FEFFF73E
:100AB00011FDFFF77BFDFFF715FEFFF723FF00F0A9
:100AC00019F800F037F800F0BFFA00F059F900F01B
:100AD00031FB00F093FB00F021FC00F039FC00F04A
:100AE00051FCFFF765FF00F0FFFBFFF799FD02F0F7
:100AF00017FAFEE708B50D480D4B03604FF48273FB
:100B0000436000238360C360036143614FF480222C
:100B10008261C3610362436283620A23C36201F09C
:100B200099FC00B908BDFFF763FFFBE7B40700209D
:100B30000030014008B50C480C4B03604FF4827341
:100B4000436000238360C360036143618361C361C9
:100B50000362436283620A23C36201F07BFC00B933
:100B600008BDFFF745FFFBE70C08002000380040F8
:100B7000F0B58DB000230793089309930A930B9364
:100B800003683B4A934204D03A4A934238D00DB0AE
:100B9000F0BD00240194384B5A6C42F480525A64E0
:100BA0005A6C02F480520192019A02941A6B42F03C
:100BB00001021A631A6B02F001020292029A039474
:100BC0001A6B42F002021A631B6B03F002030393D9
:100BD000039B502307930227089703260A960525AF
:100BE0000B9507A9254800F007FF282307930897CE
:100BF00009940A960B9507A9214800F0FDFEC6E767
:100C0000002404941C4B1A6C42F480421A641A6C3F
:100C100002F480420492049A05941A6B42F0040292
:100C20001A631A6B02F004020592059A06941A6B75
:100C300042F002021A631B6B03F002030693069B49
:100C40000C2307930227089703260A9605250B9580
:100C500007A90C4800F0D0FE4FF4405307930897C3
:100C600009940A960B9507A9054800F0C5FE8EE782
:100C700000300140003800400038024000000240CF
:100C8000000402400008024000B583B00022009238
:100C90000D4B596C41F480415964596C01F4804109
:100CA000009100990192196C41F0805119641B6CFC
:100CB00003F080530193019B0F216FF0010000F0BE
:100CC00045FE03B05DF804FB0038024010B588B063
:100CD00001460022362000F039FE362000F06EFE7C
:100CE00000240194144B1A6C42F010021A641B6C1D
:100CF00003F010030193019B02A903A801F08CFBF0
:100D000001F06AFB43000D48A0FB03239B0C013B51
:100D10000B480C4A026040F2E732C2604360046153
:100D2000846001F0CDFD10B1012008B010BD044871
:100D300001F08FFCF9E700BF0038024083DE1B435F
:100D40006408002000100040FEE7FEE7FEE7FEE733
:100D5000FEE7704708B5024801F090FC08BD00BFEF
:100D600064080020054BD3F8882042F47002C3F8D1
:100D700088204FF000629A60704700BF00ED00E0ED
:100D800000B58DB02422002103A803F001F8002350
:100D90000193029311484FF08042026043608360E8
:100DA0004FF0FF32C2600361836101230393059317
:100DB000099303A901F0B8FD50B9002301930293F0
:100DC00001A9064801F0A8FE28B90DB05DF804FBA2
:100DD000FFF70EFEF1E7FFF70BFEF6E7E408002051
:100DE00000B58BB0002305930693079308930993EE
:100DF0000368234A934208D0224A934212D0224ADF
:100E0000934230D00BB05DF804FB002301931F4BDD
:100E10005A6C42F001025A645B6C03F001030193C7
:100E2000019BEFE700210291184B1A6C42F004027B
:100E30001A641A6C02F004020292029A03911A6B6D
:100E400042F008021A631B6B03F008030393039B31
:100E50004FF44053059302230693099305A90C48C8
:100E600000F0CAFDCEE700230493084B5A6C42F011
:100E700002025A645B6C03F002030493049BC1E713
:100E8000000001400008004000040140003802401A
:100E9000000C024000B589B000230393049305932E
:100EA000069307930368B3F1804F02D009B05DF851
:100EB00004FB0021019103F50E331A6C42F001028C
:100EC0001A641A6C02F001020192019A02911A6BE3
:100ED00042F001021A631B6B03F001030293029BB1
:100EE00048F202030393022304930123079303A907
:100EF000014800F081FDD9E70000024070B58CB0D8
:100F000000230793089309930A930B930368474AB6
:100F1000934207D0464A93422FD0464A934243D049
:100F20000CB070BD00240194434B1A6B42F00102D7
:100F30001A631A6B02F001020192019A02941A6B71
:100F400042F002021A631B6B03F002030293029B3E
:100F50004FF4786307930225089501260B9607A99D
:100F6000364800F049FD0795089509940A940B96B8
:100F700007A9334800F040FDD2E7002303932E4B2E
:100F80001A6B42F002021A631B6B03F00203039315
:100F9000039B4FF440730793022308930B9307A915
:100FA000274800F029FDBBE700240494224B1A6B6C
:100FB00042F001021A631A6B02F001020492049AD1
:100FC00005941A6B42F002021A631A6B02F00202D5
:100FD0000592059A06941A6B42F004021A631B6B81
:100FE00003F004030693069B20230793022608962A
:100FF00003250B9507A9114800F0FEFC4FF4404370
:101000000793089609940A940B9507A90C4800F0D9
:10101000F3FC4FF470730793089609940A940B95A8
:1010200007A9084800F0E8FC7AE700BF000001408B
:101030000008004000040140003802400000024067
:10104000000402400008024010B592B00024109441
:10105000119409940A940B940C940D940E940F948B
:101060002022214601A802F093FE3048304B036055
:10107000446084604FF6FF73C3600461446184611F
:1010800001F038FC00283CD100231093119310A9E3
:10109000264801F041FD002836D160230993002243
:1010A0000A920B920C920D920E920F9209A91F4870
:1010B00001F0C4FC58BB042209A91C4801F0BEFC85
:1010C00040BB082209A9194801F0B8FC28BB0C2232
:1010D00009A9164801F0B2FC10BB0023019302934A
:1010E0000393049305934FF400520692089301A9C9
:1010F0000E4801F057FDB0B90C48FFF7FFFE12B0E3
:1011000010BDFFF775FCBFE7FFF772FCC5E7FFF7FF
:101110006FFCD0E7FFF76CFCD3E7FFF769FCD6E77D
:10112000FFF766FCD9E7FFF763FCE5E7A4080020BA
:101130000000014000B593B0242200210DEB020015
:1011400002F026FE00230793089300930193029375
:1011500003930493059306932648274A026043604D
:1011600083604FF6FF72C2600361836101F0C2FBCE
:1011700000282FD10122099200230A930B920C938D
:101180000D930E930F921093119309A9194801F032
:10119000CBFB10BB00230793089307A9154801F068
:1011A000BBFCE8B9602300930023019302930493EE
:1011B000082269460F4801F041FCA0B90C2269469B
:1011C0000C4801F03BFC88B90A48FFF797FE13B0C2
:1011D0005DF804FBFFF70CFCCCE7FFF709FCD9E74F
:1011E000FFF706FCDEE7FFF703FCE7E7FFF700FC8D
:1011F000EAE700BF240900200008004010B592B0C3
:1012000000241094119409940A940B940C940D9456
:101210000E940F942022214601A802F0B9FD304817
:10122000304B0360446084604FF6FF73C360046119
:101230004461846101F05EFB00283CD100231093DF
:10124000119310A9264801F067FC002836D16023CD
:10125000099300220A920B920C920D920E920F9219
:1012600009A91F4801F0EAFB58BB042209A91C4840
:1012700001F0E4FB40BB082209A9194801F0DEFB9C
:1012800028BB0C2209A9164801F0D8FB10BB00238B
:10129000019302930393049305934FF40052069233
:1012A000089301A90E4801F07DFCB0B90C48FFF786
:1012B00025FE12B010BDFFF79BFBBFE7FFF798FBC1
:1012C000C5E7FFF795FBD0E7FFF792FBD3E7FFF702
:1012D0008FFBD6E7FFF78CFBD9E7FFF789FBE5E744
:1012E000640900200004014008B50A480A4B036065
:1012F0004FF4E133436000238360C36003610C2239
:1013000042618361C36101F063FD00B908BDFFF76D
:101310006FFBFBE7240A0020004C004008B50A4898
:101320000A4B03604FF4E133436000238360C360E2
:1013300003610C2242618361C36101F049FD00B980
:1013400008BDFFF755FBFBE7640A00200050004092
:1013500008B50A480A4B03604FF4E13343600023A9
:101360008360C36003610C2242618361C36101F049
:101370002FFD00B908BDFFF73BFBFBE7A4090020E8
:101380000010014008B50A480A4B03604FF4E133EE
:10139000436000238360C36003610C224261836168
:1013A000C36101F015FD00B908BDFFF721FBFBE7A4
:1013B000E409002000480040F0B591B000230B93F1
:1013C0000C930D930E930F9303686F4A93420BD0C7
:1013D0006E4A934241D06E4A934278D06D4A93420E
:1013E00000F0988011B0F0BD002200926A4B196C99
:1013F00041F400211964196C01F400210091009955
:101400000192196B41F001011963196B01F001019F
:101410000191019902921A6B42F004021A631B6B4C
:1014200003F004030293029B01240B9402270C9700
:101430000D9403260E9608250F950BA9574800F02A
:10144000DBFA4FF400630B930C970D940E960F95F7
:101450000BA9534800F0D0FAC4E7002203924E4B88
:10146000196C41F480111964196C01F48011039115
:1014700003990492196B41F004011963196B01F08F
:1014800004010491049905921A6B42F008021A6350
:101490001B6B03F008030593059B4FF480530B93DC
:1014A00002270C9701260D9603250E9508240F940C
:1014B0000BA93B4800F0A0FA04230B930C970D9660
:1014C0000E950F940BA9374800F096FA8AE7002191
:1014D0000691314B5A6C42F010025A645A6C02F079
:1014E00010020692069A07911A6B42F002021A63E2
:1014F0001B6B03F002030793079BC0230B9302238C
:101500000C9303230E9307230F930BA9264800F097
:1015100073FA67E7002408941F4B1A6C42F4802288
:101520001A641A6C02F480220892089A09941A6BC1
:1015300042F002021A631A6B02F002020992099A3F
:101540000A941A6B42F004021A631B6B03F0040343
:101550000A930A9B4FF400630B9302270C97032610
:101560000E9607250F950BA90F4800F045FA4FF48A
:1015700080630B930C970D940E960F950BA908485A
:1015800000F03AFA2EE700BF004C00400050004047
:1015900000100140004800400038024000000240B6
:1015A00000080240000C02400004024008B50B4B4A
:1015B0001A6842F400721A601A6842F480621A6073
:1015C0001A6842F480721A60032000F0ADF900201E
:1015D000FFF77CFBFFF758FB002008BD003C0240F2
:1015E000034A1168034B1B780B441360704700BF1C
:1015F000A40A002004000020014B1868704700BFB7
:10160000A40A00204A4B5A6822F440325A605A68B1
:1016100041680A435A600268536823F48073536038
:1016200002685368016943EA012353600268536802
:1016300023F0407353600268536881680B43536022
:101640000268936823F40063936002689368C1683A
:101650000B439360826A374B9A4257D00268936873
:1016600023F07063936002689368816A0B43936010
:101670000268936823F04053936002689368C16ADC
:101680000B4393600268936823F00203936002683F
:101690009368017E43EA4103936090F82030002B69
:1016A0003FD00268536843F4006353600268536894
:1016B00023F46043536001684B68426A013A43EA8D
:1016C00042334B600268D36A23F47003D36201682B
:1016D000CB6AC269013A43EA0253CB62026893685B
:1016E00023F4007393600268936890F8301043EA23
:1016F000412393600268936823F4806393600268D7
:101700009368416943EA8123936070470268936854
:1017100023F0706393600268936823F040539360F2
:10172000B0E70268536823F400635360CAE700BF60
:10173000002301400100000F38B310B50446036CCC
:1017400043B1236C13F0100F0BD00120002384F859
:101750003C3010BDFEF7F6FE0023636484F83C3095
:10176000EFE7236C23F4885323F0020343F00203D2
:1017700023642046FFF746FF00206064236C23F0BB
:10178000030343F001032364E0E7012070470000F6
:1017900030B482B00023019390F83C30012B00F06C
:1017A000BB80012380F83C300B68092B41D90468C9
:1017B000E2689BB203EB43031E3B4FF0070C0CFAAD
:1017C00003F322EA0303E3600468E2680B8803EB97
:1017D00043031E3B8D6805FA03F31343E3604B6834
:1017E000062B3DD80468626B03EB8303053B4FF087
:1017F0001F0C0CFA03F322EA030363630468626BB1
:101800004B6803EB8303053BB1F800C00CFA03F30C
:10181000134363630268414B9A4251D002683F4BC5
:101820009A4256D0002380F83C30184602B030BCB3
:101830007047046822699BB203EB43034FF0070C27
:101840000CFA03F322EA03032361046822690B887C
:1018500003EB43038D6805FA03F313432361BEE7EB
:101860000C2B16D805682A6B03EB8303233B1F243C
:1018700004FA03F322EA03032B6305682A6B4B681F
:1018800003EB8303233B0C8804FA03F313432B631A
:10189000C0E70568EA6A03EB8303413B1F2404FAAF
:1018A00003F322EA0303EB620568EA6A4B6803EB81
:1018B0008303413B0C8804FA03F31343EB62A9E76B
:1018C0000B68122BAAD1164A536843F48003536065
:1018D000A4E70B68103B012BA4D8114A536843F4CA
:1018E000000353600B68102B9CD10E4B1B6802F158
:1018F000467202F52E3202F28332A2FB03239B0CC6
:1019000003EB83035B00019302E0019B013B019326
:10191000019B002BF9D185E7022087E700200140D9
:101920000023014000000020074AD36823F4E0634D
:101930001B041B0C000200F4E060034343F0BF6390
:1019400043F40033D360704700ED00E000B5194B5D
:10195000DB68C3F30223C3F1070CBCF1040F28BFFB
:101960004FF0040C03F1040EBEF1060F18D9033B2F
:101970004FF0FF3E0EFA0CFC21EA0C0199400EFAE2
:1019800003F322EA0303194300280BDB0901C9B260
:1019900000F1604000F5614080F800135DF804FB41
:1019A0000023E5E700F00F000901C9B2024B19540A
:1019B000F4E700BF00ED00E014ED00E0002807DBD5
:1019C00000F01F02400901239340024A42F82030F0
:1019D000704700BF00E100E058B110B504464379FC
:1019E0001BB101236371002010BD0371FEF7EEFDF2
:1019F000F7E701207047000000230F2B00F2DA8088
:101A0000F0B583B03AE0072200E00022AA4032435A
:101A10000234694D45F82420684A14686FEA0C02C4
:101A200024EA0C054E6816F4803F01D04CEA040508
:101A3000624C2560646802EA04054E6816F4003FB3
:101A400001D04CEA04055D4C6560A46802EA040517
:101A50004E6816F4801F01D04CEA0405574CA5606F
:101A6000E46822404D6815F4001F01D04CEA0402DE
:101A7000524CE26001330F2B00F29A8001229A400F
:101A80000C6804EA020C32EA0404F3D14C68651EC7
:101A9000012D03D9112C01D0122C12D185685E00C2
:101AA0000324B44025EA0405CC68B4402C43846088
:101AB000456825EA02054C68C4F300129A402A439F
:101AC0004260C5684FEA430E032404FA0EF4E24371
:101AD00025EA04058C6804FA0EF42C43C4604C68B3
:101AE000022C01D0122C0FD1DD08083550F82570DA
:101AF00003F00704A6000F24B44027EA04070C698A
:101B0000B4403C4340F82540046814404A6802F061
:101B1000030202FA0EF2224302604A6812F0805F6A
:101B2000A8D000220192264A546C44F480445464A4
:101B3000526C02F480420192019A9C08A51C1E4A34
:101B400052F8256003F0030295000F22AA4026EA0E
:101B500002061C4A90423FF458AF02F58062904260
:101B60001AD002F58062904218D002F5806290424D
:101B700016D002F58062904214D002F58062904245
:101B800012D002F58062904210D002F5806290423D
:101B90003FF439AF082239E7012237E7022235E75F
:101BA000032233E7042231E705222FE706222DE73F
:101BB00003B0F0BD704700BF00380140003C014059
:101BC00000380240000002400AB1816170470904F8
:101BD00081617047002800F0CC8070B5044690F811
:101BE0003D30002B77D0242384F83D3022681368E1
:101BF00023F0010313602268136843F40043136069
:101C00002268136823F40043136000F0E5FB626868
:101C10005A4B9A4264D85A4B98428CBF00230123F6
:101C2000002B40F0A8805749A1FB00318B0C2568A0
:101C30006A6822F03F0242EA91426A6021680A6AB9
:101C400022F03F0266684D4DAE424FD80133134338
:101C50000B622168CA6922F44F4222F0FF026668D3
:101C6000464B9E424CD8431E7600B3FBF6F301333D
:101C700040F6FC70034278D0C3F30B031343CB61EF
:101C800021680B6823F0C003E269206A0243134312
:101C90000B6021688B6823F4034323F0FF03226960
:101CA000E068024313438B602168CB6823F0FF0395
:101CB0006269A06902431343CB602268136843F052
:101CC0000103136000202064202384F83D3020634A
:101CD00084F83E0070BD80F83C30FEF731FE82E7AC
:101CE000294B98428CBF0023012399E74FF4967546
:101CF00005FB03F3254DA5FB03539B090133A6E721
:101D0000A368BBB9451E06EB460CB5FBFCF50135D7
:101D1000C5F30B05B5FA85F56D0945BBC3B90138A7
:101D200006EB4603B0FBF3F30133C3F30B0343F4B9
:101D30000043A3E7451E06EB860C0CEB8C0CB5FBB1
:101D4000FCF50135C5F30B05B5FA85F56D09E4E73A
:101D5000013806EB860303EB8303B0FBF3F3013397
:101D6000C3F30B0343F4404388E7042386E70123CE
:101D700084E7012070470120ACE700BFA086010086
:101D80007F841E0083DE1B43FF083D00D34D62109D
:101D900008B338B5044603684CF6CC421A600368B1
:101DA00045F255521A60036842685A6003688268B7
:101DB0009A60FFF721FC05462368DA6832B1FFF725
:101DC0001BFC401B3028F7D9032003E04AF6AA2267
:101DD0001A60002038BD012070470000002800F084
:101DE000DA8170B582B00446036813F0010F3BD06E
:101DF0009F4B9B6803F00C03042B2CD09C4B9B68DF
:101E000003F00C03082B21D06368B3F5803F4FD05B
:101E1000B3F5A02F52D0964B1A6822F480321A6084
:101E20001A6822F480221A606368002B50D0FFF7F2
:101E3000E3FB05468E4B1B6813F4003F14D1FFF7FC
:101E4000DBFB401B6428F5D90320ABE1884B5B68C2
:101E500013F4800FD8D0864B1B6813F4003F03D0D7
:101E60006368002B00F09981236813F0020F54D0AF
:101E70007F4B9B6813F00C0F3ED07D4B9B6803F0AB
:101E80000C03082B33D0E368002B68D0794B012278
:101E90001A60FFF7B1FB0546754B1B6813F0020F84
:101EA00054D1FFF7A9FB401B0228F5D9032079E1A3
:101EB0006F4A136843F480331360B5E76C4B1A68BC
:101EC00042F480221A601A6842F480321A60ABE74A
:101ED000FFF792FB0546664B1B6813F4003FC3D027
:101EE000FFF78AFB401B6428F5D903205AE1604BB9
:101EF0005B6813F4800FC6D15D4B1B6813F0020FB3
:101F000003D0E368012B40F04A81594A136823F05B
:101F1000F803216943EAC1031360236813F0080F33
:101F200042D063696BB3534B0122C3F8802EFFF795
:101F300063FB05464E4B5B6F13F0020F34D1FFF786
:101F40005BFB401B0228F5D903202BE1484A1368AC
:101F500023F0F803216943EAC1031360DDE7454B31
:101F600000221A60FFF748FB0546414B1B6813F03F
:101F7000020FD2D0FFF740FB401B0228F5D9032007
:101F800010E13C4B0022C3F8802EFFF735FB0546DD
:101F9000374B5B6F13F0020F06D0FFF72DFB401B92
:101FA0000228F5D90320FDE0236813F0040F77D051
:101FB0002F4B1B6C13F0805F33D1002301932C4B0C
:101FC0001A6C42F080521A641B6C03F08053019328
:101FD000019B0125284B1B6813F4807F23D0A36845
:101FE000012B34D0052B38D0214B1A6F22F001027F
:101FF0001A671A6F22F004021A67A368002B3DD0FB
:10200000FFF7FAFA06461A4B1B6F13F0020F46D180
:10201000FFF7F2FA801B41F288339842F3D903208C
:10202000C0E00025D6E7144A136843F480731360B8
:10203000FFF7E2FA0646104B1B6813F4807FCED1FF
:10204000FFF7DAFA801B0228F5D90320AAE0084A34
:10205000136F43F001031367CFE7054B1A6F42F08C
:1020600004021A671A6F42F001021A67C5E700BF3F
:10207000003802400000474200700040FFF7BCFA01
:1020800006464F4B1B6F13F0020F08D0FFF7B4FA50
:10209000801B41F288339842F3D9032082E0E5B9EE
:1020A000A369002B7DD0464A926802F00C02082AF0
:1020B00051D0022B17D0434B00221A66FFF79CFA2F
:1020C00004463F4B1B6813F0007F42D0FFF794FAA1
:1020D000001B0228F5D9032064E0394A136C23F071
:1020E00080531364DCE7374B00221A66FFF784FA4B
:1020F0000546334B1B6813F0007F06D0FFF77CFAD0
:10210000401B0228F5D903204CE0E369226A1343FF
:10211000626A43EA8213A26A5208013A43EA02431E
:10212000E26A43EA0263264A5360264B01221A669A
:10213000FFF762FA0446224B1B6813F0007F06D1BA
:10214000FFF75AFA001B0228F5D903202AE00020E5
:1021500028E0002026E0012B26D0194B5B6803F411
:102160008001E269914221D103F03F02216A8A4253
:102170001ED1616A47F6C0721A408A421AD103F42E
:102180004032A16A8A4217D103F07063E26A934237
:1021900014D1002006E001207047012002E0012058
:1021A00000E0002002B070BD0120FBE70120F9E74C
:1021B0000120F7E70120F5E70120F3E70120F1E72F
:1021C000003802400000474208B5254B9B6803F0E9
:1021D0000C03042B3FD0082B3FD1214B5A6802F04F
:1021E0003F025B6813F4800F12D01D4B5968C1F396
:1021F00088111C480023A1FB0001FDF7E9FF184BE3
:102200005B68C3F3014301335B00B0FBF3F025E0EF
:10221000134B5968C1F3881C4FEA4C11B1EB0C0009
:102220006EEB0E0E4FEA8E1343EA90638101091A9A
:1022300063EB0E03DB0043EA5173C90011EB0C0C96
:1022400043F10003990200234FEA8C2041EA9C519C
:10225000FDF7BEFFD3E7034800E0034808BD00BF19
:102260000038024040787D010024F400002800F08E
:102270009B8070B50D4604464F4B1B6803F00F035F
:102280008B4208D2CBB24C4A1370136803F00F0391
:102290008B4240F08B80236813F0020F17D013F0AD
:1022A000040F04D0454A936843F4E05393602368D5
:1022B00013F0080F04D0414A936843F460439360DD
:1022C0003E4A936823F0F003A1680B4393602368B0
:1022D00013F0010F32D06368012B21D09A1E012A1E
:1022E00025D9364A126812F0020F61D033498A6844
:1022F00022F0030213438B60FFF77EF906462F4B53
:102300009B6803F00C036268B3EB820F16D0FFF7F3
:1023100073F9801B41F288339842F0D9032042E0E0
:10232000264A126812F4003FE0D101203BE0234A24
:10233000126812F0007FD9D1012034E01E4B1B68D7
:1023400003F00F03AB4207D9EAB21B4B1A701B68AC
:1023500003F00F03AB422DD1236813F0040F06D016
:10236000164A936823F4E053E1680B4393602368B3
:1023700013F0080F07D0114A936823F460432169D2
:1023800043EAC1039360FFF71FFF0C4B9B68C3F345
:1023900003130B4AD35CD8400A4B18600A4B1868E9
:1023A000FEF794FC002070BD012070470120FAE781
:1023B0000120F8E70120F6E7003C02400038024027
:1023C000543F00080000002008000020014B18685E
:1023D000704700BF0000002008B5FFF7F7FF044B6F
:1023E0009B68C3F38223034AD35CD84008BD00BF77
:1023F00000380240643F000808B5FFF7E7FF044BD0
:102400009B68C3F34233034AD35CD84008BD00BF86
:1024100000380240643F00080F2303600B4B9A68AA
:1024200002F0030242609A6802F0F00282609A6849
:1024300002F4E052C2609B68DB0803F4E0530361DE
:10244000034B1B6803F00F030B607047003802401A
:10245000003C024000283BD010B5044600238362B4
:1024600090F85130002B2ED0022384F8513022688E
:10247000136823F0400313606368A2681343E268A3
:1024800013432269134362691343A26902F4007281
:102490001343E2691343226A1343A16A22680B4380
:1024A0001360638B03F00403616A22680B4353607B
:1024B0002268D36923F40063D3610020606501239F
:1024C00084F8513010BD80F85030FEF751FBCBE757
:1024D0000120704728B370B50E461546044690F8A3
:1024E0004930CBB1214651F8080B00F0A1FCA2689D
:1024F0003146206800F0CAFC236BA2682946606858
:1025000000F0E6FC2268A16852F8213043F0010394
:1025100042F82130002070BD80F84830FEF71AF9EB
:10252000E0E701207047000030B4036A23F00103A4
:102530000362036A4268846924F073040D682C43C3
:1025400023F0020C8B6843EA0C03104DA84203D021
:1025500005F58065A84205D123F00803CD682B431B
:1025600023F00403094DA84203D005F58065A84275
:1025700005D122F440724D692A438D692A43426095
:1025800084614A684263036230BC704700000140C6
:1025900030B4036A23F480730362036A4268C46937
:1025A00024F0730C0C6844EA0C0523F400738C6867
:1025B00043EA0423114CA04203D004F58064A042F6
:1025C00006D123F40063CC6843EA042323F4806338
:1025D0000A4CA04203D004F58064A04207D122F443
:1025E00040524C6942EA04128C6942EA0412426089
:1025F000C5614A68C263036230BC70470000014095
:1026000030B4036A23F480530362036A4468C269E6
:1026100022F4E6420D6842EA052223F400538D6855
:1026200043EA0533094DA84203D005F58065A84269
:1026300004D124F480444D6944EA85144460C261A5
:102640004A680264036230BC704700BF000001406A
:1026500070470268D36843F00103D360026893684F
:1026600003F00703062B03D0136843F00103136044
:1026700000207047704770477047704710B5044698
:1026800003681A6912F0020F11D0DA6812F0020F13
:102690000DD06FF002021A610123037703689B6972
:1026A00013F0030F70D0FFF7E6FF002323772368B2
:1026B0001A6912F0040F12D0DA6812F0040F0ED06B
:1026C0006FF004021A610223237723689B6913F4D5
:1026D000407F5FD02046FFF7CEFF0023237723689B
:1026E0001A6912F0080F12D0DA6812F0080F0ED033
:1026F0006FF008021A61042323772368DB6913F063
:10270000030F4ED02046FFF7B6FF00232377236840
:102710001A6912F0100F12D0DA6812F0100F0ED0F2
:102720006FF010021A61082323772368DB6913F422
:10273000407F3DD02046FFF79EFF0023237723688C
:102740001A6912F0010F03D0DA6812F0010F36D1C6
:1027500023681A6912F0800F03D0DA6812F0800F34
:1027600034D123681A6912F0400F03D0DA6812F0EE
:10277000400F32D123681A6912F0200F03D0DA68B3
:1027800012F0200F30D110BDFFF774FF2046FFF785
:1027900073FF8AE72046FFF76DFF2046FFF76CFFC7
:1027A0009BE72046FFF766FF2046FFF765FFACE793
:1027B0002046FFF75FFF2046FFF75EFFBDE76FF0A3
:1027C00001021A612046FEF707F9C1E76FF08002A7
:1027D0001A61204600F010FAC3E76FF040021A6158
:1027E0002046FFF74AFFC5E76FF020021A61204636
:1027F00000F001FAC7E700000368304A904212D0A7
:10280000B0F1804F0FD0A2F57C4290420BD002F580
:102810008062904207D002F58062904203D002F5B8
:102820007842904203D123F070034A681343234A4D
:1028300090422AD0B0F1804F27D0A2F57C4290423E
:1028400023D002F5806290421FD002F58062904250
:102850001BD002F57842904217D002F57052904298
:1028600013D002F5806290420FD002F58062904250
:102870000BD0A2F59832904207D002F580629042C8
:1028800003D002F58062904203D123F44073CA68FA
:10289000134323F080034A69134303608B68C362C8
:1028A0000B688362054B984203D003F5806398421E
:1028B00001D10B69036301234361704700000140AC
:1028C000B0B110B5044690F83D3063B1022384F8EE
:1028D0003D30214651F8040BFFF78EFF012384F8A9
:1028E0003D30002010BD80F83C30FFF7B1FEEDE731
:1028F00001207047B0B110B5044690F83D3063B187
:10290000022384F83D30214651F8040BFFF774FF91
:10291000012384F83D30002010BD80F83C30FEF7E4
:102920005FFAEDE70120704700284CD0F8B50C465F
:10293000054690F83D30002B40D0022385F83D300D
:102940002A68936823F4804323F0070393602946A1
:1029500051F8040BFFF750FF29688A688B690E6AEB
:102960002068104323F4407C2CF0030CA268A36978
:1029700042EA032343EA0C0323F47C4323F0FC03E1
:10298000E269E76847EA022C4CEA030C226A130367
:10299000226943EA021343EA0C0326F0AA0662689E
:1029A000646942EA04123243886029688B612B68AB
:1029B0001A62012385F83D300020F8BD80F83C30D4
:1029C000FEF768FAB9E701207047000030B4036AE7
:1029D00023F010030362036A4468826922F4E6422A
:1029E0000D6842EA052223F020038D6843EA0513AF
:1029F000114DA84203D005F58065A84206D123F009
:102A00008003CD6843EA051323F040030A4DA84232
:102A100003D005F58065A84207D124F440644D69D0
:102A200044EA85048D6944EA8504446082614A6809
:102A30008263036230BC70470000014038B590F8F3
:102A40003C30012B66D004460D46012380F83C3013
:102A5000022380F83D300C2A1AD8DFE802F007196B
:102A60001919201919193419191947000068FFF7A5
:102A70005BFD2268936943F00803936122689369C0
:102A800023F0040393612268936929690B439361DE
:102A9000012384F83D30002084F83C0038BD0068F4
:102AA000FFF794FF2268936943F4006393612268FF
:102AB000936923F48063936122689369296943EAE7
:102AC00001239361E4E70068FFF762FD2268D369A0
:102AD00043F00803D3612268D36923F00403D36170
:102AE0002268D36929690B43D361D1E70068FFF7F6
:102AF00087FD2268D36943F40063D3612268D369F8
:102B000023F48063D3612268D369296943EA0123EE
:102B1000D361BDE70220C1E790F83C30012B3DD0E6
:102B200010B4012380F83C30022380F83D30036864
:102B30005A689C6822F0700C0A6842EA0C025A60DB
:102B40000368174A93421AD0B3F1804F17D0A2F509
:102B50007C42934213D002F5806293420FD002F57B
:102B6000806293420BD002F57842934207D002F57F
:102B70007052934203D0A2F59432934204D124F0D0
:102B800080044A6814439C60012380F83D30002390
:102B900080F83C3018465DF8044B704702207047BF
:102BA0000000014090F83C30012B22D0012380F836
:102BB0003C30CB6823F440738A68134323F480636A
:102BC0004A68134323F400630A68134323F48053D1
:102BD0000A69134323F400534A69134323F48043DF
:102BE000CA69134302685364002380F83C301846D6
:102BF00070470220704770477047000038B50446A0
:102C00000268136923F44053C1680B43136183685E
:102C10000269134342691343C2691A430168CB68CE
:102C200023F4164323F00C031343CB60026853696B
:102C300023F4407381690B435361C369B3F5004FBB
:102C400035D00368604A934200F0918002F58062BB
:102C5000934200F08C80FFF7BFFB0021031849412D
:102C60001B1841F10001C90041EA5371DB0018183B
:102C700063684FEA83024FEA937341F10001FDF765
:102C8000A7FA524DA5FB00325109642303FB11033F
:102C90001B013233A5FB03235B0903F0F00202EBB7
:102CA000011203F00F03216813448B608AE003686C
:102CB000454A93422FD002F5806293422BD0FFF712
:102CC0008BFB0023021843EB0301121841F10001B2
:102CD000C90041EA5271D200101841F10001626846
:102CE00092185B41FDF774FA384DA5FB003251098B
:102CF000642303FB1103DB003233A5FB03235B09D1
:102D00005A0002F4F87202EB011203F00703216883
:102D100013448B6056E0FFF76FFB0023021843EB70
:102D20000301121841F10001C90041EA5271D200B9
:102D3000101841F10001626892185B41FDF748FAF2
:102D4000224DA5FB00325109642303FB1103DB0074
:102D50003233A5FB03235B095A0002F4F87202EB3D
:102D6000011203F00703216813448B602AE0FFF788
:102D700043FB0021031849411B1841F10001C90020
:102D800041EA5371DB00181863684FEA83024FEA87
:102D9000937341F10001FDF71BFA0C4DA5FB0032C6
:102DA0005109642303FB11031B013233A5FB0323E9
:102DB0005B0903F0F00202EB011203F00F0321683C
:102DC00013448B6038BD00BF001001401F85EB51DC
:102DD00058B310B5044690F839300BB3242384F867
:102DE00039302268D36823F40053D3602046FFF7BC
:102DF00005FF2268136923F4904313612268536925
:102E000023F02A0353612268D36843F40053D3604C
:102E10000020E063202384F8393084F83A3010BD74
:102E200080F83830FEF7C8FAD8E701207047000074
:102E300070B40C6850F82430134E1E404A688D68F8
:102E400042EA0503CA6813430A6913434A691343F4
:102E50008A691343CA6913430A6A13434A6A1343CC
:102E60008A6A1343CA6A1343CA6B13430A6B134338
:102E70003343082D04D040F82430002070BC704744
:102E800043F04003F7E700BF8000F0FF10B50132C8
:102E900050F8223003F0404C0B684C6843EA0413AE
:102EA0008C6843EA0423CC6843EA04430C6904F1C8
:102EB000FF3E43EA0E534C69A4F1020E43EA0E634F
:102EC00089690B4343EA0C0340F82230002010BD0F
:102ED000B3F5804F05D06FF0704340F822300020EA
:102EE000704730B450F82230094C1C400B684D68D4
:102EF00043EA05138D6843EA0523CD6843EA054399
:102F000089690B43234340F82230002030BC7047CE
:102F10000000F0CF842801D00330704700207047B4
:102F200008B500F02BFD002008BD2DE9F04387B067
:102F300004460F464569BDB18669AEB1D0F804803C
:102F4000D0F80090B0F90800FFF7E4FF0296019571
:102F500000903B4622694946404600F09FFC0590A0
:102F6000059807B0BDE8F08365682668D4F810803E
:102F7000B4F90800FFF7CEFF05AB019300903B4684
:102F80001FFA88F23146284600F0C3FC0128E7D03A
:102F90000020E6E708B500B9012000F039FE002066
:102FA00008BD00F1080343604FF0FF328260C36048
:102FB0000361002303607047002303617047436887
:102FC0004B609A688A6051609960086103680133B8
:102FD0000360704730B40D68B5F1FF3F11D000F1C8
:102FE00008031C465B681A68AA42FAD963684B60FA
:102FF00099608C606160086103680133036030BCD4
:1030000070470469F2E70369416882688A60416831
:1030100051605A68824206D0002202611A68013A61
:103020001A601868704782685A60F5E782B000231A
:1030300001930D4B1B68B3F1FF3F08D04FF05003D5
:1030400083F31188BFF36F8FBFF34F8FFEE74FF00D
:10305000500383F31188BFF36F8FBFF34F8F019B32
:10306000002BFCD002B070470C000020084800681C
:10307000006880F308884FF0000080F3148862B67F
:1030800061B6BFF34F8FBFF36F8F00DF00BF00004B
:1030900008ED00E0DFF80C00016841F47001016008
:1030A0007047000088ED00E04FF0807340F8043C6A
:1030B00021F0010140F8081C054B40F80C3C40F899
:1030C000202C6FF0020340F8243C4438704700BFC6
:1030D0002D3000080000000000000000000000008B
:1030E000074B19680868B0E8F04F80F30988BFF310
:1030F0006F8F4FF0000080F311887047AFF30080AE
:10310000C84600204FF0500383F31188BFF36F8F40
:10311000BFF34F8F0B4A136801331360012B00D0AC
:1031200070474FF0E023D3F8043D13F0FF0FF7D0C2
:103130004FF0500383F31188BFF36F8FBFF34F8FAE
:10314000FEE700BF0C000020094B1B6843B94FF09D
:10315000500383F31188BFF36F8FBFF34F8FFEE7E8
:10316000013B034A13600BB983F31188704700BF1A
:103170000C00002000000000000000000000000023
:10318000EFF30980BFF36F8F154B1A681EF0100F15
:1031900008BF20ED108A20E9F04F10602DE90900EA
:1031A0004FF0500080F31188BFF34F8FBFF36F8F44
:1031B00000F054FD4FF0000080F3118809BC19683D
:1031C0000868B0E8F04F1EF0100F08BFB0EC108A8E
:1031D00080F30988BFF36F8F704700BFAFF30080A3
:1031E000C846002008B54FF0500383F31188BFF3A1
:1031F0006F8FBFF34F8F00F003FC28B14FF0E02337
:103200004FF08052C3F8042D002383F3118808BDCA
:103210004FF0E022002313619361054B1B680549C1
:10322000A1FB03139B09013B536107231361704703
:1032300000000020D34D62104FF0E023D3F8002DA2
:103240003D4B9A421CD04FF0E023D3F8002D3B4B6E
:103250009A421ED030B583B0394B1A78D2B201925F
:10326000FF221A701B78DBB28DF803309DF8033013
:1032700003F05003334A1370334B07221A601BE0EC
:103280004FF0500383F31188BFF36F8FBFF34F8F5D
:10329000FEE74FF0500383F31188BFF36F8FBFF346
:1032A0004F8FFEE7284A1368013B13609DF80330F7
:1032B0005B00DBB28DF803309DF8033013F0800F14
:1032C000F0D1214B1B68032B08D04FF0500383F340
:1032D0001188BFF36F8FBFF34F8FFEE71B021A4AAF
:1032E000136003F4E0631360019BDBB2144A1370B4
:1032F0004FF0E024D4F8203D43F47003C4F8203D9F
:10330000D4F8203D43F07043C4F8203DFFF780FF20
:1033100000250E4B1D60FFF7BDFED4F8343F43F08F
:103320004043C4F8343FFFF7A1FE00F097FCFFF7DD
:103330007DFE284603B030BD71C20F4170C20F41FF
:1033400000E400E0A80A0020AC0A00200C000020E5
:10335000124A12F0070F1ED0D11D21F00701C1F54E
:10336000705313440A460E48026000214160134422
:10337000083B23F007030B48036059601960991A52
:1033800051601360084B1960084B1960084B4FF0EF
:1033900000421A6070474FF47053E4E7B40A00200B
:1033A000C0460020B00A0020BC460020B8460020DD
:1033B000B4460020164B1A461B688342FBD3516863
:1033C00002EB010C844509D0416800EB010C634518
:1033D00009D00360904219D01060704740680144E2
:1033E00051601046F0E710B40A4C2468A3420BD099
:1033F0005B681944416013681B680360904200D009
:1034000010605DF8044B70470460F7E7704700BF39
:10341000C0460020B00A002070B5054600F0E8FA6A
:10342000344B1B68A3B1344B1B681D424AD135B1E4
:10343000083515F0070F02D025F007050835002DD7
:1034400042D02E4B1B68AB424DD32D4A146804E08A
:10345000FFF77EFFE7E722461C466368AB4202D2D5
:103460002368002BF7D1234B1B68A3423DD016687D
:1034700008362368136063685B1B102B10D9601932
:1034800010F0070F08D04FF0500383F31188BFF3FB
:103490006F8FBFF34F8FFEE743606560FFF78AFFD2
:1034A000626816490B689B1A0B60164909688B42C3
:1034B00001D214490B60104B1B6813436360002357
:1034C000236002E0002600E0002600F025FB16F055
:1034D000070F0CD04FF0500383F31188BFF36F8FA9
:1034E000BFF34F8FFEE70026EFE70026EDE73046FB
:1034F00070BD00BFB00A0020B4460020B8460020CE
:10350000C0460020BC46002080B338B50446A0F178
:10351000080550F8043C164A1268134208D14FF0CF
:10352000500383F31188BFF36F8FBFF34F8FFEE714
:1035300050F8081C41B14FF0500383F31188BFF3DA
:103540006F8FBFF34F8FFEE723EA020340F8043C7E
:1035500000F04EFA54F8041C064A13680B4413603A
:103560002846FFF727FF00F0D7FA38BD704700BFA5
:10357000B4460020B8460020084B1B681B6823B9DE
:10358000074B4FF0FF321A607047044B1B68DB6833
:10359000DB685A68024B1A60704700BFCC460020B7
:1035A000A44700202DE9F04707469846089DDDF81E
:1035B00024900A9C266B02F18042013A06EB8206B7
:1035C00026F0070600293AD08E464FF0000CBCF1D9
:1035D0000F0F0BD81EF80C2004EB0C0383F83420DB
:1035E0001EF80C3013B10CF1010CF0E7002384F845
:1035F0004330062D00D90625E56265644FF0000AC8
:10360000C4F848A0201DFFF7D7FC04F11800FFF70D
:10361000D3FC2461C5F10705A5616462C4F84CA020
:1036200084F850A0424639463046FFF73DFD206001
:10363000B9F1000F01D0C9F80040BDE8F0870023C0
:1036400084F83430D5E7000038B5002407E004EBF7
:10365000840293000E481844FFF7A3FC0134062CA3
:10366000F5D90C4D2846FFF79CFC0B4C2046FFF784
:1036700098FC0A48FFF795FC0948FFF792FC0948B7
:10368000FFF78FFC084B1D60084B1C6038BD00BF66
:10369000D4460020784700208C470020AC4700200B
:1036A000D8470020C4470020CC460020D046002048
:1036B00010B50446FFF726FD214A13680133136055
:1036C000204B1B685BB1204B1B686BB91D4B1B6803
:1036D000DA6AE36A9A4207D81A4B1C6004E0194B75
:1036E0001C601368012B28D0184A1368013313603B
:1036F000E06A01238340164A11680B43136000EB14
:103700008000211D134B03EB8000FFF758FCFFF7EF
:103710001BFD0D4B1B687BB10A4B1B68DA6AE36A21
:103720009A4209D24FF0E0234FF08052C3F8042DA3
:10373000BFF34F8FBFF36F8F10BDFFF785FFD3E748
:1037400060470020C8460020C04700207047002086
:1037500074470020D446002010B5044690F851303C
:1037600063B1012B11D0022B0ED04FF0500383F325
:103770001188BFF36F8FBFF34F8FFEE7006BFFF72A
:10378000C3FE2046FFF7C0FE10BDFFF7BDFEFBE7FE
:103790000F4B1B68D3B110B5FFF7B4FC0D4BDB68C2
:1037A000DC68201DFFF72FFC0B4A1368013B1360F8
:1037B000074A1368013B1360FFF7C6FC2046FFF77A
:1037C000CBFF034B1B68002BE6D110BD704700BF39
:1037D00064470020D84700206047002008B5FFF765
:1037E000D7FF074B1B68012BF9D94FF0E0234FF0AF
:1037F0008052C3F8042DBFF34F8FBFF36F8FEEE7F6
:10380000D446002070B504460D461D4B1E681D4B66
:1038100018680430FFF7F7FB50B91A4B1B68DA6AD7
:10382000012303FA02F218490B6823EA02030B6032
:10383000B4F1FF3F0DD03444124B1B685C60A642CC
:1038400010D9124B18680F4B19680431FFF7C2FBEF
:1038500070BD002DEFD00B4B196804310C48FFF7F9
:10386000AEFBF5E70B4B1868064B19680431FFF700
:10387000B1FB094B1B68A342EAD9074B1C60E7E781
:10388000EC470020C846002074470020D0460020A6
:10389000C4470020CC460020A447002030B587B0A4
:1038A0000B9C7CB10C9DB5B154250495049D542D01
:1038B0001AD04FF0500383F31188BFF36F8FBFF31B
:1038C0004F8FFEE74FF0500383F31188BFF36F8FE4
:1038D000BFF34F8FFEE74FF0500383F31188BFF320
:1038E0006F8FBFF34F8FFEE7049D0C9D2C63022466
:1038F00085F8514000240394029505AC01940A9C7C
:103900000094FFF74FFE0C98FFF7D2FE059807B022
:1039100030BD2DE9F04385B00746884614461E4663
:103920009000FFF779FD00B381465420FFF774FD46
:103930000546B0B1C0F83090E5B1002385F85130AC
:10394000039302950D9B01930C9B009333462246F3
:1039500041463846FFF726FE2846FFF7A9FE01201C
:1039600005E04846FFF7D0FDE6E74FF0FF3005B031
:10397000BDE8F0834FF0FF30F9E7000010B588B0E4
:1039800000240594069407AA06A905A8FCF73CFEA6
:10399000059B0293069B019300942346079A0E49C8
:1039A0000E48FFF77BFF0E4B186090B14FF05003AD
:1039B00083F31188BFF36F8FBFF34F8F094B4FF025
:1039C000FF321A60084B01221A60084B1C60FFF797
:1039D00033FC08B010BD00BF6C3F0008DD370008A5
:1039E000A0470020A4470020C0470020EC4700204B
:1039F000024A136801331360704700BF6C47002010
:103A0000F8B53A4B1B68002B64D1394B1D68013562
:103A10001D60C5B9374B1B681B6843B14FF050039D
:103A200083F31188BFF36F8FBFF34F8FFEE7314AE7
:103A30001168314B186810601960304A13680133FF
:103A40001360FFF799FD2E4B1B68AB4238D9002756
:103A50002C4B1B68DB6A03EB83039A002A4B9B58B1
:103A6000012B3CD901273AE00127224B1B681B6838
:103A700043B3204B1B68DB68DC6863689D4226D338
:103A8000261D3046FFF7BFFAA36A1BB104F11800E8
:103A9000FFF7B9FAE36A01229A401C490868024319
:103AA0000A6003EB83039A00314617481044FFF77E
:103AB00086FAE26A134B1B68DB6A9A42D4D2D4E7D7
:103AC0000027D2E70E4B4FF0FF321A60C0E70C4AD6
:103AD0001360BDE70E4A13680133136000270D4BD6
:103AE0001B6803B101273846F8BD00BF6C470020B2
:103AF000EC470020CC460020D0460020A8470020FC
:103B0000A4470020C8460020D44600207447002067
:103B100068470020F047002038B5354B1B6843B993
:103B20004FF0500383F31188BFF36F8FBFF34F8FB4
:103B3000FEE7FFF7E7FA2E4B1A68013A1A601B6896
:103B4000002B4FD12B4B1B680BB900244BE00024FA
:103B5000294B1B681BB3284BDB68DC6804F1180099
:103B6000FFF751FA251D2846FFF74DFAE06A0123B9
:103B70008340224A11680B43136000EB8000294602
:103B80001F4B03EB8000FFF71AFAE26A1D4B1B681C
:103B9000DB6A9A42DCD31C4B01221A60D8E70CB1D5
:103BA000FFF7EAFC194B1C6884B9174B1C68D4B1A9
:103BB0004FF0E0234FF08052C3F8042DBFF34F8F36
:103BC000BFF36F8F01240EE0013C07D0FFF718FF11
:103BD0000028F9D00C4B01221A60F5E70B4B0022AC
:103BE0001A60E2E70024FFF7AFFA204638BD00BFB5
:103BF0006C47002060470020AC470020744700203D
:103C0000D4460020C8460020F04700206847002026
:103C100010B5A8B10446104B1B6843B14FF05003D8
:103C200083F31188BFF36F8FBFF34F8FFEE7FFF76A
:103C3000DFFE00212046FFF7E5FDFFF76DFF48B9E5
:103C40004FF0E0234FF08052C3F8042DBFF34F8FA5
:103C5000BFF36F8F10BD00BF6C470020204B1B6867
:103C60001BB1204B01221A6070471E4B00221A60C4
:103C70001D4B1B68B3FA83F3DBB2C3F11F0303EBE5
:103C800083018A0019498A5842B94FF0500383F3DF
:103C90001188BFF36F8FBFF34F8FFEE7134903EB1C
:103CA000830082000A4450684068506003EB830C34
:103CB0004FEA8C0208321144884209D003EB830397
:103CC0009A000A4B13445B68DA68094B1A60704724
:103CD000406862469100054A0A445060EEE700BF22
:103CE0006C470020F047002074470020D446002095
:103CF000C8460020DFF834D0002103E00C4B5B58AD
:103D0000435004310B480C4B42189A42F6D30B4AED
:103D100002E0002342F8043B094B9A42F9D3FDF735
:103D200021F800F011F8FCF7BBFE704700000220FC
:103D30008C3F0008000000203C0400203C040020D0
:103D4000F8470020FEE7000070B50D4E0D4D761BC4
:103D5000B61006D0002455F8043B01349847A6421B
:103D6000F9D1094E094D761B00F0D4F8B61006D0F3
:103D7000002455F8043B01349847A642F9D170BDA0
:103D8000803F0008803F0008883F0008803F00080F
:103D9000830730B548D0541E002A3FD0CAB203462C
:103DA00001E0013C3AD303F8012B9D07F9D1032C24
:103DB0002DD9CDB245EA05250F2C45EA054536D962
:103DC000A4F1100222F00F0C03F1200EE6444FEA9A
:103DD000121C03F1100242E9045542E90255103267
:103DE0007245F8D10CF1010214F00C0F03EB021232
:103DF00004F00F0C13D0ACF1040323F003030433DD
:103E0000134442F8045B9342FBD10CF003042CB141
:103E1000CAB21C4403F8012B9C42FBD130BD64465E
:103E20001346002CF4D1F9E703461446BFE71A46BF
:103E3000A446E0E7024B13B1024800F005B8704712
:103E400000000000553E0008002301461A461846AF
:103E500000F01AB838B5084B084D5B1B9C1007D012
:103E6000043B1D44013C55F804399847002CF9D116
:103E7000BDE8384000F054B88C3F0008883F000887
:103E8000704700BF704700BF2DE9F047DFF880A002
:103E90000646DAF8000098460F469146FFF7F0FF15
:103EA0001A4B1B68D3F8484124B365681F2D26DCE4
:103EB0005EB96B1C0235DAF80000636044F82570C7
:103EC000FFF7E0FF0020BDE8F08704EB8501012348
:103ED000C1F88890D4F88821AB401A43022EC4F868
:103EE0008821C1F80881E4D1D4F88C211343C4F8A7
:103EF0008C31DEE703F5A674C3F84841D5E7DAF85C
:103F00000000FFF7BFFF4FF0FF30DCE7743F000811
:103F100038040020F8B500BFF8BC08BC9E467047C6
:0C3F2000F8B500BFF8BC08BC9E46704716
:103F2C00483F0008FD0500080000000000000000EC
:103F3C008000000000000000000000006465666165
:103F4C00756C745461736B0000000000000000007D
:103F5C000102030406070809000000000102030423
:0C3F6C0049444C450000000010000020FB
:083F780088C2FF7F0100000078
:083F8000353E0008B501000800
:043F8800910100089B
:103F8C000024F4000100000010000000AAAAAAAA54
:103F9C0000000000FC02002064030020CC03002081
:103FAC000000000000000000000000000000000005
:103FBC0000000000000000000000000000000000F5
:103FCC0000000000000000000000000000000000E5
:103FDC0000000000000000000000000000000000D5
:103FEC0000000000000000000000000000000000C5
:103FFC0000000000000000000000000000000000B5
:10400C0000000000000000000000000000000000A4
:10401C000000000000000000000000000000000094
:10402C000000000000000000000000000000000084
:10403C000000000000000000010000000000000073
:10404C000E33CDAB34126DE6ECDE05000B00000038
:10405C000000000000000000000000000000000054
:10406C000000000000000000000000000000000044
:10407C000000000000000000000000000000000034
:10408C000000000000000000000000000000000024
:0C43BC000000000000000000F44700209A
:0400000508003CF5BE
:00000001FF
